{
  "_format": "hh-sol-artifact-1",
  "contractName": "PlatziPunks",
  "sourceName": "contracts/PlatziPunks.sol",
  "abi": [
    {
      "inputs": [
        {
          "internalType": "uint256",
          "name": "_maxSupply",
          "type": "uint256"
        }
      ],
      "stateMutability": "nonpayable",
      "type": "constructor"
    },
    {
      "anonymous": false,
      "inputs": [
        {
          "indexed": true,
          "internalType": "address",
          "name": "owner",
          "type": "address"
        },
        {
          "indexed": true,
          "internalType": "address",
          "name": "approved",
          "type": "address"
        },
        {
          "indexed": true,
          "internalType": "uint256",
          "name": "tokenId",
          "type": "uint256"
        }
      ],
      "name": "Approval",
      "type": "event"
    },
    {
      "anonymous": false,
      "inputs": [
        {
          "indexed": true,
          "internalType": "address",
          "name": "owner",
          "type": "address"
        },
        {
          "indexed": true,
          "internalType": "address",
          "name": "operator",
          "type": "address"
        },
        {
          "indexed": false,
          "internalType": "bool",
          "name": "approved",
          "type": "bool"
        }
      ],
      "name": "ApprovalForAll",
      "type": "event"
    },
    {
      "anonymous": false,
      "inputs": [
        {
          "indexed": true,
          "internalType": "address",
          "name": "from",
          "type": "address"
        },
        {
          "indexed": true,
          "internalType": "address",
          "name": "to",
          "type": "address"
        },
        {
          "indexed": true,
          "internalType": "uint256",
          "name": "tokenId",
          "type": "uint256"
        }
      ],
      "name": "Transfer",
      "type": "event"
    },
    {
      "inputs": [
        {
          "internalType": "address",
          "name": "to",
          "type": "address"
        },
        {
          "internalType": "uint256",
          "name": "tokenId",
          "type": "uint256"
        }
      ],
      "name": "approve",
      "outputs": [],
      "stateMutability": "nonpayable",
      "type": "function"
    },
    {
      "inputs": [
        {
          "internalType": "address",
          "name": "owner",
          "type": "address"
        }
      ],
      "name": "balanceOf",
      "outputs": [
        {
          "internalType": "uint256",
          "name": "",
          "type": "uint256"
        }
      ],
      "stateMutability": "view",
      "type": "function"
    },
    {
      "inputs": [
        {
          "internalType": "uint256",
          "name": "_tokenId",
          "type": "uint256"
        },
        {
          "internalType": "address",
          "name": "_minter",
          "type": "address"
        }
      ],
      "name": "deterministicPseudoRandomDNA",
      "outputs": [
        {
          "internalType": "uint256",
          "name": "",
          "type": "uint256"
        }
      ],
      "stateMutability": "pure",
      "type": "function"
    },
    {
      "inputs": [
        {
          "internalType": "uint256",
          "name": "_dna",
          "type": "uint256"
        }
      ],
      "name": "getAccessoriesType",
      "outputs": [
        {
          "internalType": "string",
          "name": "",
          "type": "string"
        }
      ],
      "stateMutability": "view",
      "type": "function"
    },
    {
      "inputs": [
        {
          "internalType": "uint256",
          "name": "tokenId",
          "type": "uint256"
        }
      ],
      "name": "getApproved",
      "outputs": [
        {
          "internalType": "address",
          "name": "",
          "type": "address"
        }
      ],
      "stateMutability": "view",
      "type": "function"
    },
    {
      "inputs": [
        {
          "internalType": "uint256",
          "name": "_dna",
          "type": "uint256"
        }
      ],
      "name": "getClotheColor",
      "outputs": [
        {
          "internalType": "string",
          "name": "",
          "type": "string"
        }
      ],
      "stateMutability": "view",
      "type": "function"
    },
    {
      "inputs": [
        {
          "internalType": "uint256",
          "name": "_dna",
          "type": "uint256"
        }
      ],
      "name": "getClotheType",
      "outputs": [
        {
          "internalType": "string",
          "name": "",
          "type": "string"
        }
      ],
      "stateMutability": "view",
      "type": "function"
    },
    {
      "inputs": [
        {
          "internalType": "uint256",
          "name": "_dna",
          "type": "uint256"
        }
      ],
      "name": "getEyeBrowType",
      "outputs": [
        {
          "internalType": "string",
          "name": "",
          "type": "string"
        }
      ],
      "stateMutability": "view",
      "type": "function"
    },
    {
      "inputs": [
        {
          "internalType": "uint256",
          "name": "_dna",
          "type": "uint256"
        }
      ],
      "name": "getEyeType",
      "outputs": [
        {
          "internalType": "string",
          "name": "",
          "type": "string"
        }
      ],
      "stateMutability": "view",
      "type": "function"
    },
    {
      "inputs": [
        {
          "internalType": "uint256",
          "name": "_dna",
          "type": "uint256"
        }
      ],
      "name": "getFacialHairColor",
      "outputs": [
        {
          "internalType": "string",
          "name": "",
          "type": "string"
        }
      ],
      "stateMutability": "view",
      "type": "function"
    },
    {
      "inputs": [
        {
          "internalType": "uint256",
          "name": "_dna",
          "type": "uint256"
        }
      ],
      "name": "getFacialHairType",
      "outputs": [
        {
          "internalType": "string",
          "name": "",
          "type": "string"
        }
      ],
      "stateMutability": "view",
      "type": "function"
    },
    {
      "inputs": [
        {
          "internalType": "uint256",
          "name": "_dna",
          "type": "uint256"
        }
      ],
      "name": "getGraphicType",
      "outputs": [
        {
          "internalType": "string",
          "name": "",
          "type": "string"
        }
      ],
      "stateMutability": "view",
      "type": "function"
    },
    {
      "inputs": [
        {
          "internalType": "uint256",
          "name": "_dna",
          "type": "uint256"
        }
      ],
      "name": "getHairColor",
      "outputs": [
        {
          "internalType": "string",
          "name": "",
          "type": "string"
        }
      ],
      "stateMutability": "view",
      "type": "function"
    },
    {
      "inputs": [
        {
          "internalType": "uint256",
          "name": "_dna",
          "type": "uint256"
        }
      ],
      "name": "getHatColor",
      "outputs": [
        {
          "internalType": "string",
          "name": "",
          "type": "string"
        }
      ],
      "stateMutability": "view",
      "type": "function"
    },
    {
      "inputs": [
        {
          "internalType": "uint256",
          "name": "_dna",
          "type": "uint256"
        }
      ],
      "name": "getMouthType",
      "outputs": [
        {
          "internalType": "string",
          "name": "",
          "type": "string"
        }
      ],
      "stateMutability": "view",
      "type": "function"
    },
    {
      "inputs": [
        {
          "internalType": "uint256",
          "name": "_dna",
          "type": "uint256"
        }
      ],
      "name": "getSkinColor",
      "outputs": [
        {
          "internalType": "string",
          "name": "",
          "type": "string"
        }
      ],
      "stateMutability": "view",
      "type": "function"
    },
    {
      "inputs": [
        {
          "internalType": "uint256",
          "name": "_dna",
          "type": "uint256"
        }
      ],
      "name": "getTopType",
      "outputs": [
        {
          "internalType": "string",
          "name": "",
          "type": "string"
        }
      ],
      "stateMutability": "view",
      "type": "function"
    },
    {
      "inputs": [
        {
          "internalType": "uint256",
          "name": "_dna",
          "type": "uint256"
        }
      ],
      "name": "imageByDNA",
      "outputs": [
        {
          "internalType": "string",
          "name": "",
          "type": "string"
        }
      ],
      "stateMutability": "view",
      "type": "function"
    },
    {
      "inputs": [
        {
          "internalType": "address",
          "name": "owner",
          "type": "address"
        },
        {
          "internalType": "address",
          "name": "operator",
          "type": "address"
        }
      ],
      "name": "isApprovedForAll",
      "outputs": [
        {
          "internalType": "bool",
          "name": "",
          "type": "bool"
        }
      ],
      "stateMutability": "view",
      "type": "function"
    },
    {
      "inputs": [],
      "name": "maxSupply",
      "outputs": [
        {
          "internalType": "uint256",
          "name": "",
          "type": "uint256"
        }
      ],
      "stateMutability": "view",
      "type": "function"
    },
    {
      "inputs": [],
      "name": "mint",
      "outputs": [],
      "stateMutability": "nonpayable",
      "type": "function"
    },
    {
      "inputs": [],
      "name": "name",
      "outputs": [
        {
          "internalType": "string",
          "name": "",
          "type": "string"
        }
      ],
      "stateMutability": "view",
      "type": "function"
    },
    {
      "inputs": [
        {
          "internalType": "uint256",
          "name": "tokenId",
          "type": "uint256"
        }
      ],
      "name": "ownerOf",
      "outputs": [
        {
          "internalType": "address",
          "name": "",
          "type": "address"
        }
      ],
      "stateMutability": "view",
      "type": "function"
    },
    {
      "inputs": [
        {
          "internalType": "address",
          "name": "from",
          "type": "address"
        },
        {
          "internalType": "address",
          "name": "to",
          "type": "address"
        },
        {
          "internalType": "uint256",
          "name": "tokenId",
          "type": "uint256"
        }
      ],
      "name": "safeTransferFrom",
      "outputs": [],
      "stateMutability": "nonpayable",
      "type": "function"
    },
    {
      "inputs": [
        {
          "internalType": "address",
          "name": "from",
          "type": "address"
        },
        {
          "internalType": "address",
          "name": "to",
          "type": "address"
        },
        {
          "internalType": "uint256",
          "name": "tokenId",
          "type": "uint256"
        },
        {
          "internalType": "bytes",
          "name": "data",
          "type": "bytes"
        }
      ],
      "name": "safeTransferFrom",
      "outputs": [],
      "stateMutability": "nonpayable",
      "type": "function"
    },
    {
      "inputs": [
        {
          "internalType": "address",
          "name": "operator",
          "type": "address"
        },
        {
          "internalType": "bool",
          "name": "approved",
          "type": "bool"
        }
      ],
      "name": "setApprovalForAll",
      "outputs": [],
      "stateMutability": "nonpayable",
      "type": "function"
    },
    {
      "inputs": [
        {
          "internalType": "bytes4",
          "name": "interfaceId",
          "type": "bytes4"
        }
      ],
      "name": "supportsInterface",
      "outputs": [
        {
          "internalType": "bool",
          "name": "",
          "type": "bool"
        }
      ],
      "stateMutability": "view",
      "type": "function"
    },
    {
      "inputs": [],
      "name": "symbol",
      "outputs": [
        {
          "internalType": "string",
          "name": "",
          "type": "string"
        }
      ],
      "stateMutability": "view",
      "type": "function"
    },
    {
      "inputs": [
        {
          "internalType": "uint256",
          "name": "index",
          "type": "uint256"
        }
      ],
      "name": "tokenByIndex",
      "outputs": [
        {
          "internalType": "uint256",
          "name": "",
          "type": "uint256"
        }
      ],
      "stateMutability": "view",
      "type": "function"
    },
    {
      "inputs": [
        {
          "internalType": "uint256",
          "name": "",
          "type": "uint256"
        }
      ],
      "name": "tokenDNA",
      "outputs": [
        {
          "internalType": "uint256",
          "name": "",
          "type": "uint256"
        }
      ],
      "stateMutability": "view",
      "type": "function"
    },
    {
      "inputs": [
        {
          "internalType": "address",
          "name": "owner",
          "type": "address"
        },
        {
          "internalType": "uint256",
          "name": "index",
          "type": "uint256"
        }
      ],
      "name": "tokenOfOwnerByIndex",
      "outputs": [
        {
          "internalType": "uint256",
          "name": "",
          "type": "uint256"
        }
      ],
      "stateMutability": "view",
      "type": "function"
    },
    {
      "inputs": [
        {
          "internalType": "uint256",
          "name": "tokenId",
          "type": "uint256"
        }
      ],
      "name": "tokenURI",
      "outputs": [
        {
          "internalType": "string",
          "name": "",
          "type": "string"
        }
      ],
      "stateMutability": "view",
      "type": "function"
    },
    {
      "inputs": [],
      "name": "totalSupply",
      "outputs": [
        {
          "internalType": "uint256",
          "name": "",
          "type": "uint256"
        }
      ],
      "stateMutability": "view",
      "type": "function"
    },
    {
      "inputs": [
        {
          "internalType": "address",
          "name": "from",
          "type": "address"
        },
        {
          "internalType": "address",
          "name": "to",
          "type": "address"
        },
        {
          "internalType": "uint256",
          "name": "tokenId",
          "type": "uint256"
        }
      ],
      "name": "transferFrom",
      "outputs": [],
      "stateMutability": "nonpayable",
      "type": "function"
    }
  ],
  "bytecode": "0x60806040526040518060e001604052806040518060400160405280600581526020017f426c616e6b00000000000000000000000000000000000000000000000000000081525081526020016040518060400160405280600481526020017f4b7572740000000000000000000000000000000000000000000000000000000081525081526020016040518060400160405280600e81526020017f507265736372697074696f6e303100000000000000000000000000000000000081525081526020016040518060400160405280600e81526020017f507265736372697074696f6e303200000000000000000000000000000000000081525081526020016040518060400160405280600581526020017f526f756e6400000000000000000000000000000000000000000000000000000081525081526020016040518060400160405280600a81526020017f53756e676c61737365730000000000000000000000000000000000000000000081525081526020016040518060400160405280600981526020017f5761796661726572730000000000000000000000000000000000000000000000815250815250600a906007620001bc92919062002700565b50604051806101e001604052806040518060400160405280600581526020017f426c61636b00000000000000000000000000000000000000000000000000000081525081526020016040518060400160405280600681526020017f426c75653031000000000000000000000000000000000000000000000000000081525081526020016040518060400160405280600681526020017f426c75653032000000000000000000000000000000000000000000000000000081525081526020016040518060400160405280600681526020017f426c75653033000000000000000000000000000000000000000000000000000081525081526020016040518060400160405280600681526020017f477261793031000000000000000000000000000000000000000000000000000081525081526020016040518060400160405280600681526020017f477261793032000000000000000000000000000000000000000000000000000081525081526020016040518060400160405280600781526020017f486561746865720000000000000000000000000000000000000000000000000081525081526020016040518060400160405280600a81526020017f50617374656c426c75650000000000000000000000000000000000000000000081525081526020016040518060400160405280600b81526020017f50617374656c477265656e00000000000000000000000000000000000000000081525081526020016040518060400160405280600c81526020017f50617374656c4f72616e6765000000000000000000000000000000000000000081525081526020016040518060400160405280600981526020017f50617374656c526564000000000000000000000000000000000000000000000081525081526020016040518060400160405280600c81526020017f50617374656c59656c6c6f77000000000000000000000000000000000000000081525081526020016040518060400160405280600481526020017f50696e6b0000000000000000000000000000000000000000000000000000000081525081526020016040518060400160405280600381526020017f526564000000000000000000000000000000000000000000000000000000000081525081526020016040518060400160405280600581526020017f5768697465000000000000000000000000000000000000000000000000000000815250815250600b90600f6200054e92919062002767565b506040518061012001604052806040518060400160405280600b81526020017f426c617a6572536869727400000000000000000000000000000000000000000081525081526020016040518060400160405280600d81526020017f426c617a6572537765617465720000000000000000000000000000000000000081525081526020016040518060400160405280600d81526020017f436f6c6c6172537765617465720000000000000000000000000000000000000081525081526020016040518060400160405280600c81526020017f477261706869635368697274000000000000000000000000000000000000000081525081526020016040518060400160405280600681526020017f486f6f646965000000000000000000000000000000000000000000000000000081525081526020016040518060400160405280600781526020017f4f766572616c6c0000000000000000000000000000000000000000000000000081525081526020016040518060400160405280600d81526020017f5368697274437265774e65636b0000000000000000000000000000000000000081525081526020016040518060400160405280600e81526020017f536869727453636f6f704e65636b00000000000000000000000000000000000081525081526020016040518060400160405280600a81526020017f5368697274564e65636b00000000000000000000000000000000000000000000815250815250600c9060096200077e929190620027ce565b506040518061018001604052806040518060400160405280600581526020017f436c6f736500000000000000000000000000000000000000000000000000000081525081526020016040518060400160405280600381526020017f437279000000000000000000000000000000000000000000000000000000000081525081526020016040518060400160405280600781526020017f44656661756c740000000000000000000000000000000000000000000000000081525081526020016040518060400160405280600581526020017f44697a7a7900000000000000000000000000000000000000000000000000000081525081526020016040518060400160405280600781526020017f457965526f6c6c0000000000000000000000000000000000000000000000000081525081526020016040518060400160405280600581526020017f486170707900000000000000000000000000000000000000000000000000000081525081526020016040518060400160405280600681526020017f486561727473000000000000000000000000000000000000000000000000000081525081526020016040518060400160405280600481526020017f536964650000000000000000000000000000000000000000000000000000000081525081526020016040518060400160405280600681526020017f537175696e74000000000000000000000000000000000000000000000000000081525081526020016040518060400160405280600981526020017f537572707269736564000000000000000000000000000000000000000000000081525081526020016040518060400160405280600481526020017f57696e6b0000000000000000000000000000000000000000000000000000000081525081526020016040518060400160405280600981526020017f57696e6b5761636b790000000000000000000000000000000000000000000000815250815250600d90600c62000a5f92919062002835565b506040518061018001604052806040518060400160405280600581526020017f416e67727900000000000000000000000000000000000000000000000000000081525081526020016040518060400160405280600c81526020017f416e6772794e61747572616c000000000000000000000000000000000000000081525081526020016040518060400160405280600781526020017f44656661756c740000000000000000000000000000000000000000000000000081525081526020016040518060400160405280600e81526020017f44656661756c744e61747572616c00000000000000000000000000000000000081525081526020016040518060400160405280600b81526020017f466c61744e61747572616c00000000000000000000000000000000000000000081525081526020016040518060400160405280600d81526020017f526169736564457863697465640000000000000000000000000000000000000081525081526020016040518060400160405280601481526020017f526169736564457863697465644e61747572616c00000000000000000000000081525081526020016040518060400160405280600c81526020017f536164436f6e6365726e6564000000000000000000000000000000000000000081525081526020016040518060400160405280601381526020017f536164436f6e6365726e65644e61747572616c0000000000000000000000000081525081526020016040518060400160405280600e81526020017f556e6962726f774e61747572616c00000000000000000000000000000000000081525081526020016040518060400160405280600681526020017f5570446f776e000000000000000000000000000000000000000000000000000081525081526020016040518060400160405280600d81526020017f5570446f776e4e61747572616c00000000000000000000000000000000000000815250815250600e90600c62000d4092919062002835565b506040518061010001604052806040518060400160405280600681526020017f41756275726e000000000000000000000000000000000000000000000000000081525081526020016040518060400160405280600581526020017f426c61636b00000000000000000000000000000000000000000000000000000081525081526020016040518060400160405280600681526020017f426c6f6e6465000000000000000000000000000000000000000000000000000081525081526020016040518060400160405280600c81526020017f426c6f6e6465476f6c64656e000000000000000000000000000000000000000081525081526020016040518060400160405280600581526020017f42726f776e00000000000000000000000000000000000000000000000000000081525081526020016040518060400160405280600981526020017f42726f776e4461726b000000000000000000000000000000000000000000000081525081526020016040518060400160405280600881526020017f506c6174696e756d00000000000000000000000000000000000000000000000081525081526020016040518060400160405280600381526020017f5265640000000000000000000000000000000000000000000000000000000000815250815250600f90600862000f359291906200289c565b506040518060c001604052806040518060400160405280600581526020017f426c616e6b00000000000000000000000000000000000000000000000000000081525081526020016040518060400160405280600b81526020017f42656172644d656469756d00000000000000000000000000000000000000000081525081526020016040518060400160405280600a81526020017f42656172644c696768740000000000000000000000000000000000000000000081525081526020016040518060400160405280600d81526020017f42656172644d616765737469630000000000000000000000000000000000000081525081526020016040518060400160405280600e81526020017f4d6f7573746163686546616e637900000000000000000000000000000000000081525081526020016040518060400160405280600f81526020017f4d6f757374616368654d61676e756d00000000000000000000000000000000008152508152506010906006620010b392919062002903565b506040518061014001604052806040518060400160405280600681526020017f41756275726e000000000000000000000000000000000000000000000000000081525081526020016040518060400160405280600581526020017f426c61636b00000000000000000000000000000000000000000000000000000081525081526020016040518060400160405280600681526020017f426c6f6e6465000000000000000000000000000000000000000000000000000081525081526020016040518060400160405280600c81526020017f426c6f6e6465476f6c64656e000000000000000000000000000000000000000081525081526020016040518060400160405280600581526020017f42726f776e00000000000000000000000000000000000000000000000000000081525081526020016040518060400160405280600981526020017f42726f776e4461726b000000000000000000000000000000000000000000000081525081526020016040518060400160405280600a81526020017f50617374656c50696e6b0000000000000000000000000000000000000000000081525081526020016040518060400160405280600881526020017f506c6174696e756d00000000000000000000000000000000000000000000000081525081526020016040518060400160405280600381526020017f526564000000000000000000000000000000000000000000000000000000000081525081526020016040518060400160405280600a81526020017f53696c7665724772617900000000000000000000000000000000000000000000815250815250601190600a6200131e9291906200296a565b50604051806101e001604052806040518060400160405280600581526020017f426c61636b00000000000000000000000000000000000000000000000000000081525081526020016040518060400160405280600681526020017f426c75653031000000000000000000000000000000000000000000000000000081525081526020016040518060400160405280600681526020017f426c75653032000000000000000000000000000000000000000000000000000081525081526020016040518060400160405280600681526020017f426c75653033000000000000000000000000000000000000000000000000000081525081526020016040518060400160405280600681526020017f477261793031000000000000000000000000000000000000000000000000000081525081526020016040518060400160405280600681526020017f477261793032000000000000000000000000000000000000000000000000000081525081526020016040518060400160405280600781526020017f486561746865720000000000000000000000000000000000000000000000000081525081526020016040518060400160405280600a81526020017f50617374656c426c75650000000000000000000000000000000000000000000081525081526020016040518060400160405280600b81526020017f50617374656c477265656e00000000000000000000000000000000000000000081525081526020016040518060400160405280600c81526020017f50617374656c4f72616e6765000000000000000000000000000000000000000081525081526020016040518060400160405280600981526020017f50617374656c526564000000000000000000000000000000000000000000000081525081526020016040518060400160405280600c81526020017f50617374656c59656c6c6f77000000000000000000000000000000000000000081525081526020016040518060400160405280600481526020017f50696e6b0000000000000000000000000000000000000000000000000000000081525081526020016040518060400160405280600381526020017f526564000000000000000000000000000000000000000000000000000000000081525081526020016040518060400160405280600581526020017f5768697465000000000000000000000000000000000000000000000000000000815250815250601290600f620016b092919062002767565b506040518061016001604052806040518060400160405280600381526020017f426174000000000000000000000000000000000000000000000000000000000081525081526020016040518060400160405280600681526020017f43756d626961000000000000000000000000000000000000000000000000000081525081526020016040518060400160405280600481526020017f446565720000000000000000000000000000000000000000000000000000000081525081526020016040518060400160405280600781526020017f4469616d6f6e640000000000000000000000000000000000000000000000000081525081526020016040518060400160405280600481526020017f486f6c610000000000000000000000000000000000000000000000000000000081525081526020016040518060400160405280600581526020017f50697a7a6100000000000000000000000000000000000000000000000000000081525081526020016040518060400160405280600681526020017f526573697374000000000000000000000000000000000000000000000000000081525081526020016040518060400160405280600681526020017f53656c656e61000000000000000000000000000000000000000000000000000081525081526020016040518060400160405280600481526020017f426561720000000000000000000000000000000000000000000000000000000081525081526020016040518060400160405280600c81526020017f536b756c6c4f75746c696e65000000000000000000000000000000000000000081525081526020016040518060400160405280600581526020017f536b756c6c000000000000000000000000000000000000000000000000000000815250815250601390600b62001956929190620029d1565b506040518061018001604052806040518060400160405280600981526020017f436f6e6365726e6564000000000000000000000000000000000000000000000081525081526020016040518060400160405280600781526020017f44656661756c740000000000000000000000000000000000000000000000000081525081526020016040518060400160405280600981526020017f44697362656c696566000000000000000000000000000000000000000000000081525081526020016040518060400160405280600681526020017f456174696e67000000000000000000000000000000000000000000000000000081525081526020016040518060400160405280600781526020017f4772696d6163650000000000000000000000000000000000000000000000000081525081526020016040518060400160405280600381526020017f536164000000000000000000000000000000000000000000000000000000000081525081526020016040518060400160405280600a81526020017f53637265616d4f70656e0000000000000000000000000000000000000000000081525081526020016040518060400160405280600781526020017f536572696f75730000000000000000000000000000000000000000000000000081525081526020016040518060400160405280600581526020017f536d696c6500000000000000000000000000000000000000000000000000000081525081526020016040518060400160405280600681526020017f546f6e677565000000000000000000000000000000000000000000000000000081525081526020016040518060400160405280600781526020017f5477696e6b6c650000000000000000000000000000000000000000000000000081525081526020016040518060400160405280600581526020017f566f6d6974000000000000000000000000000000000000000000000000000000815250815250601490600c62001c3792919062002835565b506040518060e001604052806040518060400160405280600681526020017f54616e6e6564000000000000000000000000000000000000000000000000000081525081526020016040518060400160405280600681526020017f59656c6c6f77000000000000000000000000000000000000000000000000000081525081526020016040518060400160405280600481526020017f50616c650000000000000000000000000000000000000000000000000000000081525081526020016040518060400160405280600581526020017f4c6967687400000000000000000000000000000000000000000000000000000081525081526020016040518060400160405280600581526020017f42726f776e00000000000000000000000000000000000000000000000000000081525081526020016040518060400160405280600981526020017f4461726b42726f776e000000000000000000000000000000000000000000000081525081526020016040518060400160405280600581526020017f426c61636b000000000000000000000000000000000000000000000000000000815250815250601590600762001df092919062002700565b506040518061046001604052806040518060400160405280600681526020017f4e6f48616972000000000000000000000000000000000000000000000000000081525081526020016040518060400160405280600881526020017f457965706174636800000000000000000000000000000000000000000000000081525081526020016040518060400160405280600381526020017f486174000000000000000000000000000000000000000000000000000000000081525081526020016040518060400160405280600581526020017f48696a616200000000000000000000000000000000000000000000000000000081525081526020016040518060400160405280600681526020017f54757262616e000000000000000000000000000000000000000000000000000081525081526020016040518060400160405280600a81526020017f57696e746572486174310000000000000000000000000000000000000000000081525081526020016040518060400160405280600a81526020017f57696e746572486174320000000000000000000000000000000000000000000081525081526020016040518060400160405280600a81526020017f57696e746572486174330000000000000000000000000000000000000000000081525081526020016040518060400160405280600a81526020017f57696e746572486174340000000000000000000000000000000000000000000081525081526020016040518060400160405280600f81526020017f4c6f6e674861697242696748616972000000000000000000000000000000000081525081526020016040518060400160405280600b81526020017f4c6f6e6748616972426f6200000000000000000000000000000000000000000081525081526020016040518060400160405280600b81526020017f4c6f6e674861697242756e00000000000000000000000000000000000000000081525081526020016040518060400160405280600d81526020017f4c6f6e67486169724375726c790000000000000000000000000000000000000081525081526020016040518060400160405280600d81526020017f4c6f6e674861697243757276790000000000000000000000000000000000000081525081526020016040518060400160405280600e81526020017f4c6f6e674861697244726561647300000000000000000000000000000000000081525081526020016040518060400160405280600d81526020017f4c6f6e674861697246726964610000000000000000000000000000000000000081525081526020016040518060400160405280600b81526020017f4c6f6e674861697246726f00000000000000000000000000000000000000000081525081526020016040518060400160405280600f81526020017f4c6f6e674861697246726f42616e64000000000000000000000000000000000081525081526020016040518060400160405280601281526020017f4c6f6e67486169724e6f74546f6f4c6f6e67000000000000000000000000000081525081526020016040518060400160405280601381526020017f4c6f6e674861697253686176656453696465730000000000000000000000000081525081526020016040518060400160405280601281526020017f4c6f6e67486169724d696157616c6c616365000000000000000000000000000081525081526020016040518060400160405280601081526020017f4c6f6e674861697253747261696768740000000000000000000000000000000081525081526020016040518060400160405280601181526020017f4c6f6e674861697253747261696768743200000000000000000000000000000081525081526020016040518060400160405280601681526020017f4c6f6e67486169725374726169676874537472616e640000000000000000000081525081526020016040518060400160405280601181526020017f53686f727448616972447265616473303100000000000000000000000000000081525081526020016040518060400160405280601181526020017f53686f727448616972447265616473303200000000000000000000000000000081525081526020016040518060400160405280601081526020017f53686f7274486169724672697a7a6c650000000000000000000000000000000081525081526020016040518060400160405280601581526020017f53686f7274486169725368616767794d756c6c6574000000000000000000000081525081526020016040518060400160405280601381526020017f53686f72744861697253686f72744375726c790000000000000000000000000081525081526020016040518060400160405280601281526020017f53686f72744861697253686f7274466c6174000000000000000000000000000081525081526020016040518060400160405280601381526020017f53686f72744861697253686f7274526f756e640000000000000000000000000081525081526020016040518060400160405280601381526020017f53686f72744861697253686f727457617665640000000000000000000000000081525081526020016040518060400160405280600e81526020017f53686f727448616972536964657300000000000000000000000000000000000081525081526020016040518060400160405280601281526020017f53686f727448616972546865436165736172000000000000000000000000000081525081526020016040518060400160405280601a81526020017f53686f727448616972546865436165736172536964655061727400000000000081525081525060169060236200261e92919062002a38565b503480156200262c57600080fd5b506040516200768938038062007689833981810160405281019062002652919062002bfd565b6040518060400160405280600a81526020017f506c61747a6950756b73000000000000000000000000000000000000000000008152506040518060400160405280600581526020017f504c504b530000000000000000000000000000000000000000000000000000008152508160009080519060200190620026d692919062002a9f565b508060019080519060200190620026ef92919062002a9f565b505050806019819055505062002c94565b82805482825590600052602060002090810192821562002754579160200282015b82811115620027535782518290805190602001906200274292919062002a9f565b509160200191906001019062002721565b5b50905062002763919062002b30565b5090565b828054828255906000526020600020908101928215620027bb579160200282015b82811115620027ba578251829080519060200190620027a992919062002a9f565b509160200191906001019062002788565b5b509050620027ca919062002b30565b5090565b82805482825590600052602060002090810192821562002822579160200282015b82811115620028215782518290805190602001906200281092919062002a9f565b5091602001919060010190620027ef565b5b50905062002831919062002b30565b5090565b82805482825590600052602060002090810192821562002889579160200282015b82811115620028885782518290805190602001906200287792919062002a9f565b509160200191906001019062002856565b5b50905062002898919062002b30565b5090565b828054828255906000526020600020908101928215620028f0579160200282015b82811115620028ef578251829080519060200190620028de92919062002a9f565b5091602001919060010190620028bd565b5b509050620028ff919062002b30565b5090565b82805482825590600052602060002090810192821562002957579160200282015b82811115620029565782518290805190602001906200294592919062002a9f565b509160200191906001019062002924565b5b50905062002966919062002b30565b5090565b828054828255906000526020600020908101928215620029be579160200282015b82811115620029bd578251829080519060200190620029ac92919062002a9f565b50916020019190600101906200298b565b5b509050620029cd919062002b30565b5090565b82805482825590600052602060002090810192821562002a25579160200282015b8281111562002a2457825182908051906020019062002a1392919062002a9f565b5091602001919060010190620029f2565b5b50905062002a34919062002b30565b5090565b82805482825590600052602060002090810192821562002a8c579160200282015b8281111562002a8b57825182908051906020019062002a7a92919062002a9f565b509160200191906001019062002a59565b5b50905062002a9b919062002b30565b5090565b82805462002aad9062002c5e565b90600052602060002090601f01602090048101928262002ad1576000855562002b1d565b82601f1062002aec57805160ff191683800117855562002b1d565b8280016001018555821562002b1d579182015b8281111562002b1c57825182559160200191906001019062002aff565b5b50905062002b2c919062002b58565b5090565b5b8082111562002b54576000818162002b4a919062002b77565b5060010162002b31565b5090565b5b8082111562002b7357600081600090555060010162002b59565b5090565b50805462002b859062002c5e565b6000825580601f1062002b99575062002bba565b601f01602090049060005260206000209081019062002bb9919062002b58565b5b50565b600080fd5b6000819050919050565b62002bd78162002bc2565b811462002be357600080fd5b50565b60008151905062002bf78162002bcc565b92915050565b60006020828403121562002c165762002c1562002bbd565b5b600062002c268482850162002be6565b91505092915050565b7f4e487b7100000000000000000000000000000000000000000000000000000000600052602260045260246000fd5b6000600282049050600182168062002c7757607f821691505b6020821081141562002c8e5762002c8d62002c2f565b5b50919050565b6149e58062002ca46000396000f3fe608060405234801561001057600080fd5b50600436106102065760003560e01c80637ecaef061161011a578063b88d4fde116100ad578063cc4e56951161007c578063cc4e5695146106bb578063d5abeb01146106eb578063dac1419e14610709578063e2eced2814610739578063e985e9c51461076957610206565b8063b88d4fde1461060f578063be65d7511461062b578063c0496cf51461065b578063c87b56dd1461068b57610206565b806395d89b41116100e957806395d89b4114610575578063a22cb46514610593578063a2ec3e9e146105af578063b70930de146105df57610206565b80637ecaef06146104b557806384425a84146104e55780638602dd6a1461051557806388ee2c161461054557610206565b806323b872dd1161019d5780634f6ccce71161016c5780634f6ccce7146103c557806360d58aed146103f55780636352211e1461042557806370a082311461045557806373075aff1461048557610206565b806323b872dd1461032d5780632f745c5914610349578063425d784f1461037957806342842e0e146103a957610206565b8063095ea7b3116101d9578063095ea7b3146102b95780631249c58b146102d557806318160ddd146102df57806318a3c0d1146102fd57610206565b806301ffc9a71461020b578063039984ba1461023b57806306fdde031461026b578063081812fc14610289575b600080fd5b61022560048036038101906102209190612ecb565b610799565b6040516102329190612f13565b60405180910390f35b61025560048036038101906102509190612f64565b6107ab565b604051610262919061302a565b60405180910390f35b61027361087d565b604051610280919061302a565b60405180910390f35b6102a3600480360381019061029e9190612f64565b61090f565b6040516102b0919061308d565b60405180910390f35b6102d360048036038101906102ce91906130d4565b610955565b005b6102dd610a6d565b005b6102e7610af7565b6040516102f49190613123565b60405180910390f35b61031760048036038101906103129190612f64565b610b04565b604051610324919061302a565b60405180910390f35b6103476004803603810190610342919061313e565b610bd6565b005b610363600480360381019061035e91906130d4565b610c36565b6040516103709190613123565b60405180910390f35b610393600480360381019061038e9190612f64565b610cdb565b6040516103a0919061302a565b60405180910390f35b6103c360048036038101906103be919061313e565b610dad565b005b6103df60048036038101906103da9190612f64565b610dcd565b6040516103ec9190613123565b60405180910390f35b61040f600480360381019061040a9190612f64565b610e3e565b60405161041c919061302a565b60405180910390f35b61043f600480360381019061043a9190612f64565b610f10565b60405161044c919061308d565b60405180910390f35b61046f600480360381019061046a9190613191565b610fc2565b60405161047c9190613123565b60405180910390f35b61049f600480360381019061049a9190612f64565b61107a565b6040516104ac919061302a565b60405180910390f35b6104cf60048036038101906104ca9190612f64565b61114c565b6040516104dc919061302a565b60405180910390f35b6104ff60048036038101906104fa9190612f64565b61121e565b60405161050c919061302a565b60405180910390f35b61052f600480360381019061052a9190612f64565b6112f0565b60405161053c919061302a565b60405180910390f35b61055f600480360381019061055a91906131be565b6113c2565b60405161056c9190613123565b60405180910390f35b61057d611428565b60405161058a919061302a565b60405180910390f35b6105ad60048036038101906105a8919061322a565b6114ba565b005b6105c960048036038101906105c49190612f64565b6114d0565b6040516105d6919061302a565b60405180910390f35b6105f960048036038101906105f49190612f64565b6115a2565b604051610606919061302a565b60405180910390f35b6106296004803603810190610624919061339f565b611674565b005b61064560048036038101906106409190612f64565b6116d6565b6040516106529190613123565b60405180910390f35b61067560048036038101906106709190612f64565b6116ee565b604051610682919061302a565b60405180910390f35b6106a560048036038101906106a09190612f64565b6117c0565b6040516106b2919061302a565b60405180910390f35b6106d560048036038101906106d09190612f64565b611887565b6040516106e2919061302a565b60405180910390f35b6106f3611959565b6040516107009190613123565b60405180910390f35b610723600480360381019061071e9190612f64565b61195f565b604051610730919061302a565b60405180910390f35b610753600480360381019061074e9190612f64565b611a31565b604051610760919061302a565b60405180910390f35b610783600480360381019061077e9190613422565b611a77565b6040516107909190612f13565b60405180910390f35b60006107a482611b0b565b9050919050565b606060006107ba836008611b85565b60ff169050600e8080549050826107d19190613491565b815481106107e2576107e16134c2565b5b9060005260206000200180546107f790613520565b80601f016020809104026020016040519081016040528092919081815260200182805461082390613520565b80156108705780601f1061084557610100808354040283529160200191610870565b820191906000526020600020905b81548152906001019060200180831161085357829003601f168201915b5050505050915050919050565b60606000805461088c90613520565b80601f01602080910402602001604051908101604052809291908181526020018280546108b890613520565b80156109055780601f106108da57610100808354040283529160200191610905565b820191906000526020600020905b8154815290600101906020018083116108e857829003601f168201915b5050505050905090565b600061091a82611be2565b6004600083815260200190815260200160002060009054906101000a900473ffffffffffffffffffffffffffffffffffffffff169050919050565b600061096082610f10565b90508073ffffffffffffffffffffffffffffffffffffffff168373ffffffffffffffffffffffffffffffffffffffff1614156109d1576040517f08c379a00000000000000000000000000000000000000000000000000000000081526004016109c8906135c4565b60405180910390fd5b8073ffffffffffffffffffffffffffffffffffffffff166109f0611c2d565b73ffffffffffffffffffffffffffffffffffffffff161480610a1f5750610a1e81610a19611c2d565b611a77565b5b610a5e576040517f08c379a0000000000000000000000000000000000000000000000000000000008152600401610a5590613656565b60405180910390fd5b610a688383611c35565b505050565b6000610a796018611cee565b90506019548110610abf576040517f08c379a0000000000000000000000000000000000000000000000000000000008152600401610ab6906136c2565b60405180910390fd5b610ac981336113c2565b6017600083815260200190815260200160002081905550610aea3382611cfc565b610af46018611d1a565b50565b6000600880549050905090565b60606000610b13836004611b85565b60ff169050600c808054905082610b2a9190613491565b81548110610b3b57610b3a6134c2565b5b906000526020600020018054610b5090613520565b80601f0160208091040260200160405190810160405280929190818152602001828054610b7c90613520565b8015610bc95780601f10610b9e57610100808354040283529160200191610bc9565b820191906000526020600020905b815481529060010190602001808311610bac57829003601f168201915b5050505050915050919050565b610be7610be1611c2d565b82611d30565b610c26576040517f08c379a0000000000000000000000000000000000000000000000000000000008152600401610c1d90613754565b60405180910390fd5b610c31838383611dc5565b505050565b6000610c4183610fc2565b8210610c82576040517f08c379a0000000000000000000000000000000000000000000000000000000008152600401610c79906137e6565b60405180910390fd5b600660008473ffffffffffffffffffffffffffffffffffffffff1673ffffffffffffffffffffffffffffffffffffffff168152602001908152602001600020600083815260200190815260200160002054905092915050565b60606000610cea836014611b85565b60ff1690506014808054905082610d019190613491565b81548110610d1257610d116134c2565b5b906000526020600020018054610d2790613520565b80601f0160208091040260200160405190810160405280929190818152602001828054610d5390613520565b8015610da05780601f10610d7557610100808354040283529160200191610da0565b820191906000526020600020905b815481529060010190602001808311610d8357829003601f168201915b5050505050915050919050565b610dc883838360405180602001604052806000815250611674565b505050565b6000610dd7610af7565b8210610e18576040517f08c379a0000000000000000000000000000000000000000000000000000000008152600401610e0f90613878565b60405180910390fd5b60088281548110610e2c57610e2b6134c2565b5b90600052602060002001549050919050565b60606000610e4d836018611b85565b60ff1690506016808054905082610e649190613491565b81548110610e7557610e746134c2565b5b906000526020600020018054610e8a90613520565b80601f0160208091040260200160405190810160405280929190818152602001828054610eb690613520565b8015610f035780601f10610ed857610100808354040283529160200191610f03565b820191906000526020600020905b815481529060010190602001808311610ee657829003601f168201915b5050505050915050919050565b6000806002600084815260200190815260200160002060009054906101000a900473ffffffffffffffffffffffffffffffffffffffff169050600073ffffffffffffffffffffffffffffffffffffffff168173ffffffffffffffffffffffffffffffffffffffff161415610fb9576040517f08c379a0000000000000000000000000000000000000000000000000000000008152600401610fb0906138e4565b60405180910390fd5b80915050919050565b60008073ffffffffffffffffffffffffffffffffffffffff168273ffffffffffffffffffffffffffffffffffffffff161415611033576040517f08c379a000000000000000000000000000000000000000000000000000000000815260040161102a90613976565b60405180910390fd5b600360008373ffffffffffffffffffffffffffffffffffffffff1673ffffffffffffffffffffffffffffffffffffffff168152602001908152602001600020549050919050565b60606000611089836016611b85565b60ff16905060158080549050826110a09190613491565b815481106110b1576110b06134c2565b5b9060005260206000200180546110c690613520565b80601f01602080910402602001604051908101604052809291908181526020018280546110f290613520565b801561113f5780601f106111145761010080835404028352916020019161113f565b820191906000526020600020905b81548152906001019060200180831161112257829003601f168201915b5050505050915050919050565b6060600061115b836000611b85565b9050600a80805490508260ff166111729190613491565b81548110611183576111826134c2565b5b90600052602060002001805461119890613520565b80601f01602080910402602001604051908101604052809291908181526020018280546111c490613520565b80156112115780601f106111e657610100808354040283529160200191611211565b820191906000526020600020905b8154815290600101906020018083116111f457829003601f168201915b5050505050915050919050565b6060600061122d836006611b85565b60ff169050600d8080549050826112449190613491565b81548110611255576112546134c2565b5b90600052602060002001805461126a90613520565b80601f016020809104026020016040519081016040528092919081815260200182805461129690613520565b80156112e35780601f106112b8576101008083540402835291602001916112e3565b820191906000526020600020905b8154815290600101906020018083116112c657829003601f168201915b5050505050915050919050565b606060006112ff836012611b85565b60ff16905060138080549050826113169190613491565b81548110611327576113266134c2565b5b90600052602060002001805461133c90613520565b80601f016020809104026020016040519081016040528092919081815260200182805461136890613520565b80156113b55780601f1061138a576101008083540402835291602001916113b5565b820191906000526020600020905b81548152906001019060200180831161139857829003601f168201915b5050505050915050919050565b6000808273ffffffffffffffffffffffffffffffffffffffff16846113e791906139c5565b90506000816040516020016113fc9190613a3c565b60405160208183030381529060405290506000818051906020012090508060001c935050505092915050565b60606001805461143790613520565b80601f016020809104026020016040519081016040528092919081815260200182805461146390613520565b80156114b05780601f10611485576101008083540402835291602001916114b0565b820191906000526020600020905b81548152906001019060200180831161149357829003601f168201915b5050505050905090565b6114cc6114c5611c2d565b838361202c565b5050565b606060006114df836010611b85565b60ff16905060128080549050826114f69190613491565b81548110611507576115066134c2565b5b90600052602060002001805461151c90613520565b80601f016020809104026020016040519081016040528092919081815260200182805461154890613520565b80156115955780601f1061156a57610100808354040283529160200191611595565b820191906000526020600020905b81548152906001019060200180831161157857829003601f168201915b5050505050915050919050565b606060006115b183600e611b85565b60ff16905060118080549050826115c89190613491565b815481106115d9576115d86134c2565b5b9060005260206000200180546115ee90613520565b80601f016020809104026020016040519081016040528092919081815260200182805461161a90613520565b80156116675780601f1061163c57610100808354040283529160200191611667565b820191906000526020600020905b81548152906001019060200180831161164a57829003601f168201915b5050505050915050919050565b61168561167f611c2d565b83611d30565b6116c4576040517f08c379a00000000000000000000000000000000000000000000000000000000081526004016116bb90613754565b60405180910390fd5b6116d084848484612199565b50505050565b60176020528060005260406000206000915090505481565b606060006116fd836002611b85565b9050600b80805490508260ff166117149190613491565b81548110611725576117246134c2565b5b90600052602060002001805461173a90613520565b80601f016020809104026020016040519081016040528092919081815260200182805461176690613520565b80156117b35780601f10611788576101008083540402835291602001916117b3565b820191906000526020600020905b81548152906001019060200180831161179657829003601f168201915b5050505050915050919050565b60606117cb826121f5565b61180a576040517f08c379a000000000000000000000000000000000000000000000000000000000815260040161180190613ac9565b60405180910390fd5b600060176000848152602001908152602001600020549050600061182d82611a31565b9050600061185b8583604051602001611847929190613c7b565b604051602081830303815290604052612261565b90508060405160200161186e9190613d10565b6040516020818303038152906040529350505050919050565b6060600061189683600a611b85565b60ff169050600f8080549050826118ad9190613491565b815481106118be576118bd6134c2565b5b9060005260206000200180546118d390613520565b80601f01602080910402602001604051908101604052809291908181526020018280546118ff90613520565b801561194c5780601f106119215761010080835404028352916020019161194c565b820191906000526020600020905b81548152906001019060200180831161192f57829003601f168201915b5050505050915050919050565b60195481565b6060600061196e83600c611b85565b60ff16905060108080549050826119859190613491565b81548110611996576119956134c2565b5b9060005260206000200180546119ab90613520565b80601f01602080910402602001604051908101604052809291908181526020018280546119d790613520565b8015611a245780601f106119f957610100808354040283529160200191611a24565b820191906000526020600020905b815481529060010190602001808311611a0757829003601f168201915b5050505050915050919050565b60606000611a3d6123e6565b90506000611a4a84612423565b90508181604051602001611a5f929190613d7e565b60405160208183030381529060405292505050919050565b6000600560008473ffffffffffffffffffffffffffffffffffffffff1673ffffffffffffffffffffffffffffffffffffffff16815260200190815260200160002060008373ffffffffffffffffffffffffffffffffffffffff1673ffffffffffffffffffffffffffffffffffffffff16815260200190815260200160002060009054906101000a900460ff16905092915050565b60007f780e9d63000000000000000000000000000000000000000000000000000000007bffffffffffffffffffffffffffffffffffffffffffffffffffffffff1916827bffffffffffffffffffffffffffffffffffffffffffffffffffffffff19161480611b7e5750611b7d826124f0565b5b9050919050565b600081600a611b949190613eed565b6001611ba09190613f38565b600283611bad9190613f92565b600a611bb99190613eed565b6001611bc59190613f38565b84611bd09190613491565b611bda9190613fc9565b905092915050565b611beb816121f5565b611c2a576040517f08c379a0000000000000000000000000000000000000000000000000000000008152600401611c21906138e4565b60405180910390fd5b50565b600033905090565b816004600083815260200190815260200160002060006101000a81548173ffffffffffffffffffffffffffffffffffffffff021916908373ffffffffffffffffffffffffffffffffffffffff160217905550808273ffffffffffffffffffffffffffffffffffffffff16611ca883610f10565b73ffffffffffffffffffffffffffffffffffffffff167f8c5be1e5ebec7d5bd14f71427d1e84f3dd0314c0f7b2291e5b200ac8c7c3b92560405160405180910390a45050565b600081600001549050919050565b611d168282604051806020016040528060008152506125d2565b5050565b6001816000016000828254019250508190555050565b600080611d3c83610f10565b90508073ffffffffffffffffffffffffffffffffffffffff168473ffffffffffffffffffffffffffffffffffffffff161480611d7e5750611d7d8185611a77565b5b80611dbc57508373ffffffffffffffffffffffffffffffffffffffff16611da48461090f565b73ffffffffffffffffffffffffffffffffffffffff16145b91505092915050565b8273ffffffffffffffffffffffffffffffffffffffff16611de582610f10565b73ffffffffffffffffffffffffffffffffffffffff1614611e3b576040517f08c379a0000000000000000000000000000000000000000000000000000000008152600401611e329061406c565b60405180910390fd5b600073ffffffffffffffffffffffffffffffffffffffff168273ffffffffffffffffffffffffffffffffffffffff161415611eab576040517f08c379a0000000000000000000000000000000000000000000000000000000008152600401611ea2906140fe565b60405180910390fd5b611eb683838361262d565b611ec1600082611c35565b6001600360008573ffffffffffffffffffffffffffffffffffffffff1673ffffffffffffffffffffffffffffffffffffffff1681526020019081526020016000206000828254611f11919061411e565b925050819055506001600360008473ffffffffffffffffffffffffffffffffffffffff1673ffffffffffffffffffffffffffffffffffffffff1681526020019081526020016000206000828254611f6891906139c5565b92505081905550816002600083815260200190815260200160002060006101000a81548173ffffffffffffffffffffffffffffffffffffffff021916908373ffffffffffffffffffffffffffffffffffffffff160217905550808273ffffffffffffffffffffffffffffffffffffffff168473ffffffffffffffffffffffffffffffffffffffff167fddf252ad1be2c89b69c2b068fc378daa952ba7f163c4a11628f55a4df523b3ef60405160405180910390a461202783838361263d565b505050565b8173ffffffffffffffffffffffffffffffffffffffff168373ffffffffffffffffffffffffffffffffffffffff16141561209b576040517f08c379a00000000000000000000000000000000000000000000000000000000081526004016120929061419e565b60405180910390fd5b80600560008573ffffffffffffffffffffffffffffffffffffffff1673ffffffffffffffffffffffffffffffffffffffff16815260200190815260200160002060008473ffffffffffffffffffffffffffffffffffffffff1673ffffffffffffffffffffffffffffffffffffffff16815260200190815260200160002060006101000a81548160ff0219169083151502179055508173ffffffffffffffffffffffffffffffffffffffff168373ffffffffffffffffffffffffffffffffffffffff167f17307eab39ab6107e8899845ad3d59bd9653f200f220920489ca2b5937696c318360405161218c9190612f13565b60405180910390a3505050565b6121a4848484611dc5565b6121b084848484612642565b6121ef576040517f08c379a00000000000000000000000000000000000000000000000000000000081526004016121e690614230565b60405180910390fd5b50505050565b60008073ffffffffffffffffffffffffffffffffffffffff166002600084815260200190815260200160002060009054906101000a900473ffffffffffffffffffffffffffffffffffffffff1673ffffffffffffffffffffffffffffffffffffffff1614159050919050565b6060600082511415612284576040518060200160405280600081525090506123e1565b600060405180606001604052806040815260200161497060409139905060006003600285516122b391906139c5565b6122bd9190613fc9565b60046122c99190613f38565b905060006020826122da91906139c5565b67ffffffffffffffff8111156122f3576122f2613274565b5b6040519080825280601f01601f1916602001820160405280156123255781602001600182028036833780820191505090505b509050818152600183018586518101602084015b818310156123a0576003830192508251603f8160121c1685015160f81b8252600182019150603f81600c1c1685015160f81b8252600182019150603f8160061c1685015160f81b8252600182019150603f811685015160f81b825260018201915050612339565b6003895106600181146123ba57600281146123ca576123d5565b613d3d60f01b60028303526123d5565b603d60f81b60018303525b50505050508093505050505b919050565b60606040518060400160405280601581526020017f68747470733a2f2f6176617461616172732e696f2f0000000000000000000000815250905090565b60608061242f8361114c565b612438846116ee565b61244185610b04565b61244a8661121e565b612453876107ab565b61245c88611887565b6124658961195f565b61246e8a6115a2565b6124778b6114d0565b6124808c6112f0565b6124898d610cdb565b6124928e61107a565b6040516020016124ad9c9b9a999897969594939291906145e0565b6040516020818303038152906040529050806124c884610e3e565b6040516020016124d9929190614756565b604051602081830303815290604052915050919050565b60007f80ac58cd000000000000000000000000000000000000000000000000000000007bffffffffffffffffffffffffffffffffffffffffffffffffffffffff1916827bffffffffffffffffffffffffffffffffffffffffffffffffffffffff191614806125bb57507f5b5e139f000000000000000000000000000000000000000000000000000000007bffffffffffffffffffffffffffffffffffffffffffffffffffffffff1916827bffffffffffffffffffffffffffffffffffffffffffffffffffffffff1916145b806125cb57506125ca826127d9565b5b9050919050565b6125dc8383612843565b6125e96000848484612642565b612628576040517f08c379a000000000000000000000000000000000000000000000000000000000815260040161261f90614230565b60405180910390fd5b505050565b612638838383612a1d565b505050565b505050565b60006126638473ffffffffffffffffffffffffffffffffffffffff16612b31565b156127cc578373ffffffffffffffffffffffffffffffffffffffff1663150b7a0261268c611c2d565b8786866040518563ffffffff1660e01b81526004016126ae94939291906147da565b602060405180830381600087803b1580156126c857600080fd5b505af19250505080156126f957506040513d601f19601f820116820180604052508101906126f6919061483b565b60015b61277c573d8060008114612729576040519150601f19603f3d011682016040523d82523d6000602084013e61272e565b606091505b50600081511415612774576040517f08c379a000000000000000000000000000000000000000000000000000000000815260040161276b90614230565b60405180910390fd5b805181602001fd5b63150b7a0260e01b7bffffffffffffffffffffffffffffffffffffffffffffffffffffffff1916817bffffffffffffffffffffffffffffffffffffffffffffffffffffffff1916149150506127d1565b600190505b949350505050565b60007f01ffc9a7000000000000000000000000000000000000000000000000000000007bffffffffffffffffffffffffffffffffffffffffffffffffffffffff1916827bffffffffffffffffffffffffffffffffffffffffffffffffffffffff1916149050919050565b600073ffffffffffffffffffffffffffffffffffffffff168273ffffffffffffffffffffffffffffffffffffffff1614156128b3576040517f08c379a00000000000000000000000000000000000000000000000000000000081526004016128aa906148b4565b60405180910390fd5b6128bc816121f5565b156128fc576040517f08c379a00000000000000000000000000000000000000000000000000000000081526004016128f390614920565b60405180910390fd5b6129086000838361262d565b6001600360008473ffffffffffffffffffffffffffffffffffffffff1673ffffffffffffffffffffffffffffffffffffffff168152602001908152602001600020600082825461295891906139c5565b92505081905550816002600083815260200190815260200160002060006101000a81548173ffffffffffffffffffffffffffffffffffffffff021916908373ffffffffffffffffffffffffffffffffffffffff160217905550808273ffffffffffffffffffffffffffffffffffffffff16600073ffffffffffffffffffffffffffffffffffffffff167fddf252ad1be2c89b69c2b068fc378daa952ba7f163c4a11628f55a4df523b3ef60405160405180910390a4612a196000838361263d565b5050565b612a28838383612b54565b600073ffffffffffffffffffffffffffffffffffffffff168373ffffffffffffffffffffffffffffffffffffffff161415612a6b57612a6681612b59565b612aaa565b8173ffffffffffffffffffffffffffffffffffffffff168373ffffffffffffffffffffffffffffffffffffffff1614612aa957612aa88382612ba2565b5b5b600073ffffffffffffffffffffffffffffffffffffffff168273ffffffffffffffffffffffffffffffffffffffff161415612aed57612ae881612d0f565b612b2c565b8273ffffffffffffffffffffffffffffffffffffffff168273ffffffffffffffffffffffffffffffffffffffff1614612b2b57612b2a8282612de0565b5b5b505050565b6000808273ffffffffffffffffffffffffffffffffffffffff163b119050919050565b505050565b6008805490506009600083815260200190815260200160002081905550600881908060018154018082558091505060019003906000526020600020016000909190919091505550565b60006001612baf84610fc2565b612bb9919061411e565b9050600060076000848152602001908152602001600020549050818114612c9e576000600660008673ffffffffffffffffffffffffffffffffffffffff1673ffffffffffffffffffffffffffffffffffffffff168152602001908152602001600020600084815260200190815260200160002054905080600660008773ffffffffffffffffffffffffffffffffffffffff1673ffffffffffffffffffffffffffffffffffffffff168152602001908152602001600020600084815260200190815260200160002081905550816007600083815260200190815260200160002081905550505b6007600084815260200190815260200160002060009055600660008573ffffffffffffffffffffffffffffffffffffffff1673ffffffffffffffffffffffffffffffffffffffff16815260200190815260200160002060008381526020019081526020016000206000905550505050565b60006001600880549050612d23919061411e565b9050600060096000848152602001908152602001600020549050600060088381548110612d5357612d526134c2565b5b906000526020600020015490508060088381548110612d7557612d746134c2565b5b906000526020600020018190555081600960008381526020019081526020016000208190555060096000858152602001908152602001600020600090556008805480612dc457612dc3614940565b5b6001900381819060005260206000200160009055905550505050565b6000612deb83610fc2565b905081600660008573ffffffffffffffffffffffffffffffffffffffff1673ffffffffffffffffffffffffffffffffffffffff168152602001908152602001600020600083815260200190815260200160002081905550806007600084815260200190815260200160002081905550505050565b6000604051905090565b600080fd5b600080fd5b60007fffffffff0000000000000000000000000000000000000000000000000000000082169050919050565b612ea881612e73565b8114612eb357600080fd5b50565b600081359050612ec581612e9f565b92915050565b600060208284031215612ee157612ee0612e69565b5b6000612eef84828501612eb6565b91505092915050565b60008115159050919050565b612f0d81612ef8565b82525050565b6000602082019050612f286000830184612f04565b92915050565b6000819050919050565b612f4181612f2e565b8114612f4c57600080fd5b50565b600081359050612f5e81612f38565b92915050565b600060208284031215612f7a57612f79612e69565b5b6000612f8884828501612f4f565b91505092915050565b600081519050919050565b600082825260208201905092915050565b60005b83811015612fcb578082015181840152602081019050612fb0565b83811115612fda576000848401525b50505050565b6000601f19601f8301169050919050565b6000612ffc82612f91565b6130068185612f9c565b9350613016818560208601612fad565b61301f81612fe0565b840191505092915050565b600060208201905081810360008301526130448184612ff1565b905092915050565b600073ffffffffffffffffffffffffffffffffffffffff82169050919050565b60006130778261304c565b9050919050565b6130878161306c565b82525050565b60006020820190506130a2600083018461307e565b92915050565b6130b18161306c565b81146130bc57600080fd5b50565b6000813590506130ce816130a8565b92915050565b600080604083850312156130eb576130ea612e69565b5b60006130f9858286016130bf565b925050602061310a85828601612f4f565b9150509250929050565b61311d81612f2e565b82525050565b60006020820190506131386000830184613114565b92915050565b60008060006060848603121561315757613156612e69565b5b6000613165868287016130bf565b9350506020613176868287016130bf565b925050604061318786828701612f4f565b9150509250925092565b6000602082840312156131a7576131a6612e69565b5b60006131b5848285016130bf565b91505092915050565b600080604083850312156131d5576131d4612e69565b5b60006131e385828601612f4f565b92505060206131f4858286016130bf565b9150509250929050565b61320781612ef8565b811461321257600080fd5b50565b600081359050613224816131fe565b92915050565b6000806040838503121561324157613240612e69565b5b600061324f858286016130bf565b925050602061326085828601613215565b9150509250929050565b600080fd5b600080fd5b7f4e487b7100000000000000000000000000000000000000000000000000000000600052604160045260246000fd5b6132ac82612fe0565b810181811067ffffffffffffffff821117156132cb576132ca613274565b5b80604052505050565b60006132de612e5f565b90506132ea82826132a3565b919050565b600067ffffffffffffffff82111561330a57613309613274565b5b61331382612fe0565b9050602081019050919050565b82818337600083830152505050565b600061334261333d846132ef565b6132d4565b90508281526020810184848401111561335e5761335d61326f565b5b613369848285613320565b509392505050565b600082601f8301126133865761338561326a565b5b813561339684826020860161332f565b91505092915050565b600080600080608085870312156133b9576133b8612e69565b5b60006133c7878288016130bf565b94505060206133d8878288016130bf565b93505060406133e987828801612f4f565b925050606085013567ffffffffffffffff81111561340a57613409612e6e565b5b61341687828801613371565b91505092959194509250565b6000806040838503121561343957613438612e69565b5b6000613447858286016130bf565b9250506020613458858286016130bf565b9150509250929050565b7f4e487b7100000000000000000000000000000000000000000000000000000000600052601260045260246000fd5b600061349c82612f2e565b91506134a783612f2e565b9250826134b7576134b6613462565b5b828206905092915050565b7f4e487b7100000000000000000000000000000000000000000000000000000000600052603260045260246000fd5b7f4e487b7100000000000000000000000000000000000000000000000000000000600052602260045260246000fd5b6000600282049050600182168061353857607f821691505b6020821081141561354c5761354b6134f1565b5b50919050565b7f4552433732313a20617070726f76616c20746f2063757272656e74206f776e6560008201527f7200000000000000000000000000000000000000000000000000000000000000602082015250565b60006135ae602183612f9c565b91506135b982613552565b604082019050919050565b600060208201905081810360008301526135dd816135a1565b9050919050565b7f4552433732313a20617070726f76652063616c6c6572206973206e6f7420746f60008201527f6b656e206f776e6572206e6f7220617070726f76656420666f7220616c6c0000602082015250565b6000613640603e83612f9c565b915061364b826135e4565b604082019050919050565b6000602082019050818103600083015261366f81613633565b9050919050565b7f4e6f20506c61747a6950756e6b73206c656674203a2800000000000000000000600082015250565b60006136ac601683612f9c565b91506136b782613676565b602082019050919050565b600060208201905081810360008301526136db8161369f565b9050919050565b7f4552433732313a2063616c6c6572206973206e6f7420746f6b656e206f776e6560008201527f72206e6f7220617070726f766564000000000000000000000000000000000000602082015250565b600061373e602e83612f9c565b9150613749826136e2565b604082019050919050565b6000602082019050818103600083015261376d81613731565b9050919050565b7f455243373231456e756d657261626c653a206f776e657220696e646578206f7560008201527f74206f6620626f756e6473000000000000000000000000000000000000000000602082015250565b60006137d0602b83612f9c565b91506137db82613774565b604082019050919050565b600060208201905081810360008301526137ff816137c3565b9050919050565b7f455243373231456e756d657261626c653a20676c6f62616c20696e646578206f60008201527f7574206f6620626f756e64730000000000000000000000000000000000000000602082015250565b6000613862602c83612f9c565b915061386d82613806565b604082019050919050565b6000602082019050818103600083015261389181613855565b9050919050565b7f4552433732313a20696e76616c696420746f6b656e2049440000000000000000600082015250565b60006138ce601883612f9c565b91506138d982613898565b602082019050919050565b600060208201905081810360008301526138fd816138c1565b9050919050565b7f4552433732313a2061646472657373207a65726f206973206e6f74206120766160008201527f6c6964206f776e65720000000000000000000000000000000000000000000000602082015250565b6000613960602983612f9c565b915061396b82613904565b604082019050919050565b6000602082019050818103600083015261398f81613953565b9050919050565b7f4e487b7100000000000000000000000000000000000000000000000000000000600052601160045260246000fd5b60006139d082612f2e565b91506139db83612f2e565b9250827fffffffffffffffffffffffffffffffffffffffffffffffffffffffffffffffff03821115613a1057613a0f613996565b5b828201905092915050565b6000819050919050565b613a36613a3182612f2e565b613a1b565b82525050565b6000613a488284613a25565b60208201915081905092915050565b7f455243373231204d657461646174613a2055524920717565727920666f72206e60008201527f6f6e206578697374656e20746f6b656e00000000000000000000000000000000602082015250565b6000613ab3603083612f9c565b9150613abe82613a57565b604082019050919050565b60006020820190508181036000830152613ae281613aa6565b9050919050565b600081905092915050565b7f7b20226e616d65223a2022506c61747a6950756e6b7320230000000000000000600082015250565b6000613b2a601883613ae9565b9150613b3582613af4565b601882019050919050565b7f222c20226465736372697074696f6e223a2022506c61747a692050756e6b732060008201527f6172652072616e646f6d697a6564204176617461616172732073746f7265642060208201527f6f6e20636861696e20746f207465616368204441707020646576656c6f706d6560408201527f6e74206f6e20506c61747a69222c2022696d616765223a202200000000000000606082015250565b6000613be8607983613ae9565b9150613bf382613b40565b607982019050919050565b6000613c0982612f91565b613c138185613ae9565b9350613c23818560208601612fad565b80840191505092915050565b7f227d000000000000000000000000000000000000000000000000000000000000600082015250565b6000613c65600283613ae9565b9150613c7082613c2f565b600282019050919050565b6000613c8682613b1d565b9150613c928285613a25565b602082019150613ca182613bdb565b9150613cad8284613bfe565b9150613cb882613c58565b91508190509392505050565b7f646174613a6170706c69636174696f6e2f6a736f6e3b62617365363400000000600082015250565b6000613cfa601c83613ae9565b9150613d0582613cc4565b601c82019050919050565b6000613d1b82613ced565b9150613d278284613bfe565b915081905092915050565b7f3f00000000000000000000000000000000000000000000000000000000000000600082015250565b6000613d68600183613ae9565b9150613d7382613d32565b600182019050919050565b6000613d8a8285613bfe565b9150613d9582613d5b565b9150613da18284613bfe565b91508190509392505050565b60008160011c9050919050565b6000808291508390505b6001851115613e0457808604811115613de057613ddf613996565b5b6001851615613def5780820291505b8081029050613dfd85613dad565b9450613dc4565b94509492505050565b600082613e1d5760019050613ed9565b81613e2b5760009050613ed9565b8160018114613e415760028114613e4b57613e7a565b6001915050613ed9565b60ff841115613e5d57613e5c613996565b5b8360020a915084821115613e7457613e73613996565b5b50613ed9565b5060208310610133831016604e8410600b8410161715613eaf5782820a905083811115613eaa57613ea9613996565b5b613ed9565b613ebc8484846001613dba565b92509050818404811115613ed357613ed2613996565b5b81810290505b9392505050565b600060ff82169050919050565b6000613ef882612f2e565b9150613f0383613ee0565b9250613f307fffffffffffffffffffffffffffffffffffffffffffffffffffffffffffffffff8484613e0d565b905092915050565b6000613f4382612f2e565b9150613f4e83612f2e565b9250817fffffffffffffffffffffffffffffffffffffffffffffffffffffffffffffffff0483118215151615613f8757613f86613996565b5b828202905092915050565b6000613f9d82613ee0565b9150613fa883613ee0565b92508260ff03821115613fbe57613fbd613996565b5b828201905092915050565b6000613fd482612f2e565b9150613fdf83612f2e565b925082613fef57613fee613462565b5b828204905092915050565b7f4552433732313a207472616e736665722066726f6d20696e636f72726563742060008201527f6f776e6572000000000000000000000000000000000000000000000000000000602082015250565b6000614056602583612f9c565b915061406182613ffa565b604082019050919050565b6000602082019050818103600083015261408581614049565b9050919050565b7f4552433732313a207472616e7366657220746f20746865207a65726f2061646460008201527f7265737300000000000000000000000000000000000000000000000000000000602082015250565b60006140e8602483612f9c565b91506140f38261408c565b604082019050919050565b60006020820190508181036000830152614117816140db565b9050919050565b600061412982612f2e565b915061413483612f2e565b92508282101561414757614146613996565b5b828203905092915050565b7f4552433732313a20617070726f766520746f2063616c6c657200000000000000600082015250565b6000614188601983612f9c565b915061419382614152565b602082019050919050565b600060208201905081810360008301526141b78161417b565b9050919050565b7f4552433732313a207472616e7366657220746f206e6f6e20455243373231526560008201527f63656976657220696d706c656d656e7465720000000000000000000000000000602082015250565b600061421a603283612f9c565b9150614225826141be565b604082019050919050565b600060208201905081810360008301526142498161420d565b9050919050565b7f6163636573736f72696573547970653d00000000000000000000000000000000600082015250565b6000614286601083613ae9565b915061429182614250565b601082019050919050565b7f26636c6f746865436f6c6f723d00000000000000000000000000000000000000600082015250565b60006142d2600d83613ae9565b91506142dd8261429c565b600d82019050919050565b7f26636c6f746865547970653d0000000000000000000000000000000000000000600082015250565b600061431e600c83613ae9565b9150614329826142e8565b600c82019050919050565b7f26657965547970653d0000000000000000000000000000000000000000000000600082015250565b600061436a600983613ae9565b915061437582614334565b600982019050919050565b7f2665796562726f77547970653d00000000000000000000000000000000000000600082015250565b60006143b6600d83613ae9565b91506143c182614380565b600d82019050919050565b7f2666616369616c48616972436f6c6f723d000000000000000000000000000000600082015250565b6000614402601183613ae9565b915061440d826143cc565b601182019050919050565b7f2666616369616c48616972547970653d00000000000000000000000000000000600082015250565b600061444e601083613ae9565b915061445982614418565b601082019050919050565b7f2668616972436f6c6f723d000000000000000000000000000000000000000000600082015250565b600061449a600b83613ae9565b91506144a582614464565b600b82019050919050565b7f26686174436f6c6f723d00000000000000000000000000000000000000000000600082015250565b60006144e6600a83613ae9565b91506144f1826144b0565b600a82019050919050565b7f2667726170686963547970653d00000000000000000000000000000000000000600082015250565b6000614532600d83613ae9565b915061453d826144fc565b600d82019050919050565b7f266d6f757468547970653d000000000000000000000000000000000000000000600082015250565b600061457e600b83613ae9565b915061458982614548565b600b82019050919050565b7f26736b696e436f6c6f723d000000000000000000000000000000000000000000600082015250565b60006145ca600b83613ae9565b91506145d582614594565b600b82019050919050565b60006145eb82614279565b91506145f7828f613bfe565b9150614602826142c5565b915061460e828e613bfe565b915061461982614311565b9150614625828d613bfe565b91506146308261435d565b915061463c828c613bfe565b9150614647826143a9565b9150614653828b613bfe565b915061465e826143f5565b915061466a828a613bfe565b915061467582614441565b91506146818289613bfe565b915061468c8261448d565b91506146988288613bfe565b91506146a3826144d9565b91506146af8287613bfe565b91506146ba82614525565b91506146c68286613bfe565b91506146d182614571565b91506146dd8285613bfe565b91506146e8826145bd565b91506146f48284613bfe565b91508190509d9c50505050505050505050505050565b7f26746f70547970653d0000000000000000000000000000000000000000000000600082015250565b6000614740600983613ae9565b915061474b8261470a565b600982019050919050565b60006147628285613bfe565b915061476d82614733565b91506147798284613bfe565b91508190509392505050565b600081519050919050565b600082825260208201905092915050565b60006147ac82614785565b6147b68185614790565b93506147c6818560208601612fad565b6147cf81612fe0565b840191505092915050565b60006080820190506147ef600083018761307e565b6147fc602083018661307e565b6148096040830185613114565b818103606083015261481b81846147a1565b905095945050505050565b60008151905061483581612e9f565b92915050565b60006020828403121561485157614850612e69565b5b600061485f84828501614826565b91505092915050565b7f4552433732313a206d696e7420746f20746865207a65726f2061646472657373600082015250565b600061489e602083612f9c565b91506148a982614868565b602082019050919050565b600060208201905081810360008301526148cd81614891565b9050919050565b7f4552433732313a20746f6b656e20616c7265616479206d696e74656400000000600082015250565b600061490a601c83612f9c565b9150614915826148d4565b602082019050919050565b60006020820190508181036000830152614939816148fd565b9050919050565b7f4e487b7100000000000000000000000000000000000000000000000000000000600052603160045260246000fdfe4142434445464748494a4b4c4d4e4f505152535455565758595a6162636465666768696a6b6c6d6e6f707172737475767778797a303132333435363738392b2fa26469706673582212206cc87e85c79222832cf8e1edf98811c64d3997d1196a2df7aa7fb73e97e704c764736f6c63430008090033",
  "linkReferences": {},
  "deployedLinkReferences": {}
}